:020000020000FC
:1000000010C01895E6C1189518951895189518956B
:1000100018951895189594C11895B5C11895189507
:10002000189521E02EBF2FE52DBF2EE62BBB2EE627
:100030002ABB2BEF28BB27E027BB20E826BD20E00A
:1000400026BD22E023BF21E029BF2FE12BBD20E404
:100050002ABD20E42FBD20E02EBD07E11AE220E8F2
:1000600027B920E123B92CEE26B920E12BBF20E2ED
:1000700022BBA998A2D1689428B32C7F28BB4EE656
:100080004BBB7894FF2494E657D1DD24EE24DD2089
:1000900009F059D0E894FFE059E120E02395E22FE0
:1000A00024903490E05A5490E05A6490E05A74904E
:1000B00091E042D1DD2059F7222381F75A9571F75B
:1000C00068945CE32DD12B7F28BB2AD120662E7645
:1000D0002BBB99E131D1DD20D1F65A9599F728B3A0
:1000E0002C7F28BB4EE64BBB94E626D1E894FFE07C
:1000F0005FE020E02395E22F2490349054906490A8
:10010000749092E019D1DD20E9F4222399F75A95F1
:1001100089F76894FEE0E0E603D12E70E20FC59106
:10012000D591FD2FEC2F2591222329F05FD0C9D046
:10013000DD2041F4F8CF28B3236028BB2EE62BBB8B
:1001400094E6FAD0A4CF689428B32C7F28BB4EE65F
:100150004BBB24E0F22E2EE0422E94E6EDD02FE3AE
:10016000422E94E6E9D026E2422E92E3E5D028B36F
:10017000236028BBFEE0E0E6D3D02E70E20FC591ED
:10018000D591FD2FEC2FA99B07C0A89B02C0A89872
:1001900001C0A89A04D1A998A89906C02591222344
:1001A00049F024D030D0FACF2591222319F01ED067
:1001B0005BD0FACF98ECC0D028B32C7F28BB2FE2BD
:1001C000422E92E3B9D029E1422E94E6B5D026E240
:1001D000422E96E9B1D028B3236028BBC299FECF46
:1001E000FF2496E9A9D0EE24DD240895BF2FAE2F79
:1001F000E22FE052EE0FFEE0E0682591359134E009
:10020000FB2FEA2F0895422F407C19F49AE094D0F6
:100210000895330F221F330F221F403481F449E029
:100220004EBD48B343604E7F48BB95E085D040E06B
:100230004EBD48B3436048BB95E07ED0E4CF403824
:1002400081F449E04EBD48B343604D7F48BB9FE019
:1002500073D040E04EBD48B3436048BB95E06CD0DE
:10026000D2CF9FE069D0CFCF422F407C19F49AE0E3
:1002700063D00895330F221F330F221F403471F4CF
:1002800049E048B343604E7F48BB95E055D040E01D
:1002900048B3436048BB95E04FD0E6CF403871F497
:1002A00049E048B343604D7F48BB9FE045D040E004
:1002B00048B3436048BB95E03FD0D6CF9FE03CD0E9
:1002C000A2CF422F407C19F494E136D00895330F29
:1002D000221F330F221F403479F448B34C7F48BBB0
:1002E00040E64BBB9AE028D048B3436048BB4EE69B
:1002F0004BBB9AE021D0E5CF403879F448B34C7F2E
:1003000048BB40E64BBB9EE117D048B3436048BBB7
:100310004EE64BBB9AE010D0D4CF9EE10DD0D1CFAA
:10032000202F22952027220F202721272295221FC8
:10033000001F111F212F089588959923E9F708952B
:100340007FB78AED82BF139411F49A95639588B3B1
:100350008B7F96F08EE6151408F48D7F161408F442
:100360008B7F171408F4877F8BBB8BEF121408F474
:100370008E7F131408F48D7F141410F460FD8F2900
:1003800088BB7FBF18957FB785B1833228F0E3948F
:100390008E2D8A3014F0D394EE247FBF1895E19906
:1003A000FECF20E02CBB20E02EBBA89B20E0A8992C
:1003B00021E02DBBE29AE19A0895E199FECF20E079
:1003C0002EBBE09A2DB3222311F0A89A0895A89885
:1003D0000895A99A1895474F4F474C4520414E44E0
:1003E000524F494420524F434B532100494345202B
:1003F000435245414D2053414E44574954434820B0
:1004000054415354455320474F4F442E2000492018
:10041000414D20434F4D504C4554454C59204F5071
:1004200045524154494F4E414C20414E4420414C8D
:100430004C204D5920434952435549545320415271
:10044000452046554E4354494F4E494E472050454E
:1004500052464543544C592E200057484154204998
:100460005320414C4C2054484953204E4F4953454A
:100470003F204920414D20545259494E4720544F66
:1004800020434F4E43454E54524154452100484F5E
:100490004E4559434F4D4220495320534F20535707
:1004A00045455421200044494420492048454152B3
:1004B00020534F4D455448494E473F00492057412E
:1004C00053204D4144452042592043415253544505
:1004D0004E204156454E484155532E004920574124
:1004E0005320555044415445442042592044334BF5
:0404F0004F442E0047
:100E6000D603EC030E045A045A048E04A604BC04F0
:100E8000C00099A0659000005658000065406A9027
:100E90009A409A6000006640A5A095606660964002
:100EA000AA806A805A805680558055409540A5405A
:100EB000A940AA40A95099900000958000005A507E
:100EC0006990600095009900940040005900A400CA
:100ED000550050006A0098006500A0009000A8002E
:100EE0006900A600640054008000580056006800A5
:100EF00096009A00A50000000000000000005A6063
:100F000000000101010101010102020203030404C6
:100F100004050606070708090A0A0B0C0D0E0F1038
:100F200011121314151617181A1B1C1E1F2022232A
:100F30002526282A2B2D2F3032343637393B3D3F9A
:100F4000414345474A4C4E50525557595C5E616388
:100F500066686B6D707375787B7E818386898C8FF4
:100F60009295989B9FA2A5A8ABAFB2B5B9BCC0C3E0
:100F7000C7CACED2D5D9DDE0E4E8ECF0F4F7FBFF48
:100F8000FFFBF7F4F0ECE8E4E0DDD9D5D2CECAC738
:100F9000C3C0BCB9B5B2AFABA8A5A29F9B989592B0
:100FA0008F8C898683817E7B787573706D6B6866A4
:100FB00063615E5C59575552504E4C4A4745434118
:100FC0003F3D3B3937363432302F2D2B2A2826250A
:100FD0002322201F1E1C1B1A18171615141312117A
:100FE000100F0E0D0C0B0A0A090807070606050468
:100FF00004040303020202010101010101010000D6
:00000001FF
